:100000001FC600004EC600004CC600004AC60000D5
:1000100048C6000046C6000044C6000042C60000B4
:1000200040C600003EC600003CC600003AC60000C4
:1000300038C6000036C6000034C6000032C60000D4
:1000400030C600002EC600002CC600002AC60000E4
:1000500028C6000026C6000024C600000C940F1C11
:1000600020C600000C946B1A0C94421A1AC60000A9
:1000700018C6000016C6000014C6000012C6000014
:1000800010C600000EC600000CC600000AC6000024
:100090000C94191A0C94F01904C600000C944B1E11
:1000A00000C60000FEC50000FCC50000FAC5000047
:1000B000F8C50000F6C50000F4C50000F2C5000058
:1000C000F0C50000EEC50000ECC50000EAC5000068
:1000D000E8C50000E6C500000C94C7190C949E19F1
:1000E000E0C50000225D245D285D365D445D6E5DE7
:1000F0006E5D6E5D6E5D6E5D6E5D6E5D6E5D685DAE
:100100006E5D6E5D645B755B8C5B985BCF5BE15B8A
:10011000FA5B0E5C265C355C385C5C5C615C805C28
:10012000C55CF65C6E5D6E5D6E5D6E5DFC5C115D6A
:100130001D5D6E5D6E5D575DBB08C108CE08DB08B6
:10014000EE08010924094F095A09C31AC61AB51A3B
:10015000B91ABD1AFD1ACA1ACE1AD41AD81ADC1A3C
:10016000E21AE61AEA1AFD1AF01AF41AF81A6431B9
:10017000CB326C3127315931CB32CB32CB32CB320F
:10018000CB32CB32CB32CB32CB32CB32CB32CB3287
:10019000CB32CB32CB32CB322932CB32CB32CB3219
:1001A000CB32CB32BE329F2DCB32CB32CB32CB32A5
:1001B000CB32CB32CB32CB32CB32CB32CB32CB3257
:1001C000CB32CB32CB32CB32CB32CB32CB32CB3247
:1001D000CB32CB32CB32CB32CB32CB32CB32CB3237
:1001E000CB32CB32CB32CB323332CB32CB32BB2DD4
:1001F000CC2DE12DEB2D1E2E2E2E462E562E662EAC
:10020000AC2ED02E1A2F6A2F8F2FA72FCB2FCE2FA9
:10021000D72F093080308A309E30CB32CB32AB3092
:100220000331036EDB363D9A9999993DABAAAA2A10
:100230003E000000803F084AD73B3BCE016E84BCA5
:10024000BFFDC12F3D6C74319ABD56833DDA3D0030
:10025000C77F11BED9E4BB4C3E916BAAAABE000079
:1002600000803F072C7AA5BA6CC590DA3B9365FCF9
:100270008BBC53F810FD3C5692834DBD879D3AB61A
:100280003DCBC9BF5BBE73DA0FC93F05A84CCDB2E9
:10029000D44EB93836A9020C50B9918688083CA6CC
:1002A000AAAA2ABE000000803F07634236B79BD847
:1002B000A71A39685618AEBAAB558C1D3CB7CC5747
:1002C00063BD6DEDFD753EF6177231BF0000008015
:1002D0003F08000000BE922449123EABAAAA2ABEE3
:1002E000CDCCCC4C3E00000080BEABAAAAAA3E00FA
:1002F000000000BF000000803F0000000000084137
:1003000078D3BB4387D1133D190E3CC3BD4282ADA8
:100310002B3E68EC8276BED98FE1A93E4C80EFFF80
:10032000BE01C4FF7F3F00000000000080114011AB
:100330004071327334333213121132111293341369
:10034000145352310021030406080B2D0A09070536
:10035000040241C011C05112535473121112515270
:1003600073147332310021020405060708090806D8
:1003700007062403020102000120012011C001111F
:10038000003132137413143312F112D312510001DD
:10039000022325060746442342210001E0A0313212
:1003A00013B4331112110011201100523312133201
:1003B000112001222485042304020342410001E0AC
:1003C000A05112141315131534133251400120118A
:1003D00052133231000122230405040504230103D2
:1003E00082612001E011801132135415143332312F
:1003F00040210201003172314102234423020122D3
:1004000001220102614001A0118051121413341520
:100410001433123140010201030201205211122053
:10042000212243042241022102A10001E0201140C7
:1004300051537413321140210203020302010011CF
:1004400012113200114122232221004102A1800118
:1004500060116011001132337413121140016203F4
:1004600002032131121112114001020102030201A3
:10047000000100E121E0A01120121173343331207A
:100480000162036240121112110011010001020108
:10049000220001200100E1C00100118011001211B1
:1004A0001312141334522001E202212031121100E0
:1004B0001100010021020100014021000241000160
:1004C000E0601140111211131214131413321100B1
:1004D000212203420102210001001100121100112A
:1004E00020010041600100C10001401120016011A4
:1004F000405112131213143312310001420322012E
:100500000221000140110031001100010001000131
:10051000A0E10001A00180112031529312110021AD
:10052000C221002140310011201100010001E0E151
:100530006001E011001172731231002142030102C7
:1005400001022021401100112011600140116001C1
:100550000001022102000120014001A051321312CA
:1005600053321120010201822100210001001100FB
:1005700031E00011001160210001020102010100BF
:1005800021200100016011001152131214135211A5
:10059000004182010200010021401100110011A060
:1005A000110031001120812201010002010021000F
:1005B00001601100521312131413323101000201B1
:1005C000220142010021000100011120110011202F
:1005D00011407100114001022102010201002102BB
:1005E00021000100010011001211123312341332E4
:1005F000112001020142012201004100016011208D
:10060000110011001100511231206102012202007B
:1006100002010281201100121173341332110041C2
:10062000020182010061000180110011009132314C
:1006300040214201020200626140115214135433FE
:10064000310041820122000102004100016091124B
:100650001152512001220103010202008261005166
:10066000335415143331002102012203424102A107
:100670008031921332310041220302010300220330
:10068000220102014011123395333101002201038E
:1006900042032221220102610001110011521312B2
:1006A00053123100412203220300230203020102FC
:1006B0002120321314161517161533112001620369
:1006C000020302032201A241401112531413141316
:1006D000321101000201020302030202000223029E
:1006E0000322212032141637181715131211002176
:1006F0002203024302430103020382212011121349
:100700001415341514321100016223020300430250
:100710000342012012131518193A1715131100215D
:100720000203026304E30203020302010240121304
:100730001415171516341220212243020300A32298
:100740000100111215181C1E1D19161311000201AB
:1007500003020304230403240304430423040302C5
:1007600003422011121415171836151331210203F4
:1007700002230203241E191512100E0C0B0A09097C
:100780000908080807060605040404030404040015
:10079000000000000000000000272621232523255B
:1007A000242722292A2A1C27282B33322725222CCA
:1007B000333130370000000000000000000000006E
:1007C0000001FFFFE000000000000001FFFFF0005B
:1007D000000000000001FFFFF80000000000000121
:1007E000FFFFFE00000000000003FFFFFF0000000D
:1007F00000000003FFFFFFF000000000000FFFFFFC
:10080000FFFE00000003FFFFFC000007FC00007F6C
:10081000FFFFFC000000000000001FFFFE000000C2
:10082000000096918C87827D78736E69645F5A555B
:10083000504B46413C37322D28231E19140F0A0510
:100840000004090E13181D22272C31363B40454A5F
:100850004F54595E63686D72777C81868B90959A50
:100860009FA4A9AEB3AFAAA5A09B968F89837E78DB
:10087000736E69645F5A55504B47423E3935302C90
:1008800027231F1B16120E09050103070B1014194D
:100890001D22262B2F34393D42474C51565B606553
:1008A0006B70757B80868C92979DA3A9AFB2ACA626
:1008B000A09A948F827C76706B65605C57524E4A2A
:1008C00046413D3936322E2A26221F1B1713100CA3
:1008D00008040102060A0E12161A1E22262B2F33B6
:1008E000383D41464B4F54595E64696F747A808736
:1008F0008D949BA2AAB1AEA69F979089826F6863E0
:100900005E5955514D4946423F3C3835322E2B28D1
:1009100024211E1A1714100D0A0603000306090DE0
:100920001014181C2024282C3034393D41464A4FDD
:1009300054585D62676D737980878F98A2ACB0A5BB
:100940009A90867D766F55514D4A4744413F3C3AD7
:10095000383533312E2B292623201D1A1713100D5D
:100960000A070401010306090D1013171A1E222697
:100970002A2E32363A3E42464A4E53575B5F6469EE
:100980006E757C85909FB2A08D7D7067605A553ED4
:100990003C3A393736343332302F2E2C2A2927244B
:1009A000221F1C191613100D0A0704020003050864
:1009B0000A0D1013161A1D2125292D3135383C40FA
:1009C00043464A4D505356595B5E6165696F826D6F
:1009D000544D4A474442403E2E2E2D2C2C2B2A2A81
:1009E0002929282726252423211F1C1A1714100D16
:1009F0000A07040101030507090C0E1013161A1D3E
:100A00002124282C3033373A3D40424447484A4A53
:100A10004B4A48443D3019021621282B2D2E2F2EEB
:100A20002E06090C0F121517191B1C1B1811040E8A
:100A30002231383C3C3C3A3835322F2B2824201CBC
:100A40001915110D09050102060A0E1115181C1FB2
:100A5000222527292A2B2B292621191108000408D1
:100A60000A0A0A0807040200030616181A1C1E20A8
:100A7000211F1712516063625F5D5956524E4A46FC
:100A8000423E3935312C2824201B17130E0A06014B
:100A900002060A0F13171B1F23262A2D313437395C
:100AA0003C3D3F3F3E3D39352F28211C1715131380
:100AB000131416A8ADB2B0ABA6A19C97928D8883F3
:100AC0007E79746F6A65605B56514C47423D38339E
:100AD0002E29241F1A15100B060103080D12171CCE
:100AE00021262B30353A3F44494E53585D62676C9E
:100AF00071767B80858A8F94999EA3A8000021003F
:100B0000240027002A002D003000330001010000DE
:100B1000040107010A0100002200250028002B0023
:100B20002E003100340002010000050108010B0114
:100B300005050505070508080808020202020A0A59
:100B40000808040404040101010101010101030377
:100B5000030303030303040707070C0C0C0C0C0C22
:100B60000C0C0202020206060606060606060B0B1F
:100B70000B0B0B0B0B0B0102102020080810204060
:100B80001020408002010201080402010102040851
:100B900010204080804020100804020180040201DF
:100BA0008040201008040201080402010102040828
:100BB00010204080010204081020408000000A0B31
:100BC00002090C0D0E0807030401000000000000DC
:100BD0000000000000000000000000000000000015
:100BE00000000000000000001211100000000000D2
:100BF00000000000000000000000000000000000F5
:100C000000004E414E494E495459494E46CDCCCC38
:100C10003D0AD7233C17B7D13877CC2B329595E6D0
:100C2000241FB14F0A000020410000C84200401CB0
:100C30004620BCBE4CCA1B0E5AAEC59D74000F6048
:100C400011241FBECFEFD1E2DEBFCDBF00E00CBF4D
:100C500015E0A0E0B2E0EAEAF0ED00E00BBF02C070
:100C600007900D92A239B107D9F72FE0A2E9B5E0BC
:100C700001C01D92A338B207E1F716E0C0E2D6E04A
:100C800000E006C021970109802FFE010E94DA6072
:100C9000CF31D10780E00807A9F70E94363C0C94B9
:100CA0005368AEC92091320B3091330B223031059D
:100CB00069F13CF42115310571F02130310589F0DD
:100CC00013C12430310509F45AC074F125303105BF
:100CD00009F460C009C1803D09F006C181E090E0DF
:100CE00054C08D3D59F482E090E09093330B809393
:100CF000320B1092310B1092300BF6C0803D09F48C
:100D0000F3C01092330B1092320BEEC080932F0B76
:100D100080932E0B90E090932D0B80932C0B81975A
:100D200080F783E090E031C090912F0B980F909363
:100D30002F0B20912E0B920F90932E0B2091300BA6
:100D40003091310B2032310558F4A9014F5F5F4FCC
:100D50005093310B4093300BF901E45FF44F8083E3
:100D60002091300B3091310B80912C0B90912D0BF9
:100D70002817390708F4B8C084E090E006C09091C5
:100D80002F0B9813BECF85E090E09093330B8093A8
:100D9000320BAAC090912E0B98139CC08091300BFF
:100DA0009091310B809709F098C080914206909104
:100DB0004306A0914406B09145060196A11DB11DC0
:100DC0008093420690934306A0934406B093450651
:100DD00020910C0B30910D0B40910E0B50910F0B8D
:100DE000AAE0B0E00E941268609322067093230686
:100DF00080932406909325062091100B3091110BBF
:100E00004091120B5091130B0E94126860932606BA
:100E10007093270680932806909329068091140BDF
:100E20009091150BA091160BB091170B8093320681
:100E300090933306A0933406B093350680912A0B25
:100E400090912B0BA0E0B0E080933606909337068C
:100E5000A0933806B09339068091260B9091270B0A
:100E6000A091280BB091290B80933E0690933F06EA
:100E7000A0934006B09341068091210B823019F077
:100E8000833009F081E0809346068091200B8093A7
:100E9000470680911C0B90911D0BA0911E0BB091E9
:100EA0001F0B80932A0690932B06A0932C06B093D9
:100EB0002D068091180B9091190BA0911A0BB091EF
:100EC0001B0B80932E0690932F06A0933006B093B1
:100ED000310603C080E090E002C081E090E0109213
:100EE000330B1092320B089580E090E00895109239
:100EF000330B1092320B0895CF92DF92EF92FF9254
:100F00000F931F93CF93DF93FC016B01EA01E12C58
:100F1000F12C20E030E0A90100811181D8018C91F1
:100F200090ED980F9A30F0F4AAE0B0E00E941268B9
:100F300098012F5F3F4F31832083D8012C91022EDF
:100F4000000C330B205331098901330F220B330B73
:100F5000A9019801260F371F481F591FEE24E3945B
:100F6000F12CDACF8E3239F50F5F1F4F11830083DA
:100F7000219750F1AAE0B0E00E9412689B01AC01F9
:100F8000A081B1818C9180538A3090F7CD01019678
:100F9000918380838C91082E000C990BC097092EA9
:100FA000000CAA0BBB0B280F391F4A1F5B1FEE2436
:100FB000E394F12CDDCF219738F0AAE0B0E00E9455
:100FC00012689B01AC01F7CFA081B1818C9190EDAB
:100FD000980F9A3020F41196B183A083F5CF8C320C
:100FE00019F080E090E010C01196B183A083EF2843
:100FF000C1F3C114D10431F0D6012D933D934D932B
:101000005C93139781E090E0DF91CF911F910F9156
:10101000FF90EF90DF90CF9008954F925F926F9284
:101020007F928F929F92AF92BF92EF92FF920F9317
:101030001F93CF93DF9300D01F92CDB7DEB78C0103
:101040007B0145E050E0BE016F5F7F4F55DF892B8C
:1010500009F45AC089809A80AB80BC80C501B40174
:1010600020E836E948E950E00E94F66760E876E952
:1010700088E990E00E94B8602B013C01A501940131
:10108000261B370B480B590BA4E6B0E00E941268F0
:101090002CE330E040E050E00E94F66729833A8379
:1010A0004B835C83BA01A901440D551D661D771D54
:1010B000D801ED91FC9180818E3479F01CF4853457
:1010C00061F00FC0833511F0873559F47095609544
:1010D000509541955F4F6F4F7F4F3196D801ED93FB
:1010E000FC93D801ED91FC91119780818C3261F4D1
:1010F0003196ED93FC93E114F10489F0F7014083FC
:101100005183628373830BC0D801ED91FC911197D9
:1011100080818C3239F43196ED93FC9303C081E0E9
:1011200090E002C080E090E00F900F900F900F9041
:10113000DF91CF911F910F91FF90EF90BF90AF90F3
:101140009F908F907F906F905F904F900895109236
:101150000B0B10920A0B0895982FE091B50AF091AD
:10116000B60AE930F10508F064C18827E456FF4F5C
:101170008F4F0C94DA60953B09F05BC181E090E001
:1011800094C0923619F482E090E08FC0953B09F448
:1011900050C11092B60A1092B50A4BC1292F30E007
:1011A0003093B40A2093B30A9093B20A9093B10A91
:1011B00083E090E07AC0292F30E03093B00A20938A
:1011C000AF0A8091B20A980F9093B20A8091B10A47
:1011D000980F9093B10A84E090E067C0292F30E027
:1011E0003093AE0A2093AD0A8091B20A980F909383
:1011F000B20A8091B10A980F9093B10A85E090E00D
:1012000054C0292F30E0322F22274091AD0A50914F
:10121000AE0A240F351F3093AE0A2093AD0A109208
:10122000AC0A1092AB0A8091B20A980F9093B20A5E
:101230008091B10A980F9093B10A2533310508F0D7
:10124000A8CF86E090E031C08091B20A890F8093E8
:10125000B20A2091B10A820F8093B10A2091AB0AA1
:101260003091AC0A2433310558F4A9014F5F5F4F28
:101270005093AC0A4093AB0AF901E958F54F9083BB
:101280002091AB0A3091AC0A8091AD0A9091AE0AE0
:101290002817390708F4CDC087E090E006C0809198
:1012A000B20A891376CF88E090E09093B60A8093D3
:1012B000B50ABFC08091B10A8913B1C080914206BE
:1012C00090914306A0914406B09145060196A11D58
:1012D000B11D8093420690934306A0934406B093B9
:1012E00045068091B30A9091B40A019709F09AC01B
:1012F0008091AF0A9091B00A8230910509F051C0F7
:1013000080917F0A9091800AA091810AB091820A0F
:101310008093220690932306A0932406B09325067B
:1013200080917B0A90917C0AA0917D0AB0917E0AFF
:101330008093260690932706A0932806B09329064B
:101340008091830A9091840AA091850AB091860ABF
:101350008093320690933306A0933406B0933506FB
:1013600080918B0A90918C0AA0918D0AB0918E0A7F
:101370008093360690933706A0933806B0933906CB
:101380008091770A9091780AA091790AB0917A0AAF
:1013900080933E0690933F06A0934006B09341068B
:1013A00041C08330910551F480917B0A823019F05D
:1013B000833009F081E08093460634C08630910581
:1013C00029F48091A60A809347062CC0429751F5D4
:1013D00060918F0A7091900A8091910A9091920A7F
:1013E00024E630E040E050E00E94F66720932A06B1
:1013F00030932B0640932C0650932D0680918B0A38
:1014000090918C0AA0918D0AB0918E0A80932E063D
:1014100090932F06A0933006B093310603C080E06E
:1014200090E002C081E090E01092B60A1092B50AF6
:10143000089580E090E008951092B60A1092B50ADF
:101440000895409160034295440F440F407C4C5CEA
:1014500064EF87E790E00C94DB1DCF93DF9300D01F
:1014600000D0CDB7DEB720910A0B30910B0B2130A5
:101470003105D1F01CF4232B49F0EAC122303105AB
:1014800099F12330310509F448C0E2C1843209F0F2
:10149000DFC181E090E090930B0B80930A0B1092D8
:1014A000090B1092080BD4C1E091090B8A3239F470
:1014B000F0E0E954F54F108282E090E029C0E03579
:1014C00070F491E09E0F9093090BF0E0E954F54F12
:1014D00080839091080B89278093080BB9C11092E3
:1014E0000B0B10920A0BB4C190E0E091080BF0E0F6
:1014F00024E0F595E7952A95E1F7E554FC4F208126
:10150000022E000C330B8217930749F783E090E01B
:1015100090930B0B80930A0B9BC190E0E091080B1A
:10152000EF70F0E0E554FC4F2081022E000C330BED
:101530008217930709F085C1809142069091430676
:10154000A0914406B09145060196A11DB11D80935E
:10155000420690934306A0934406B093450687EB5A
:101560009AE09E838D8346E050E06EE074E00E9436
:10157000E964892B09F09CC08DEB9AE09E838D83F2
:1015800043E050E0BE016F5F7F4FCE010596B4DCB3
:10159000892B29F089819A81AB81BC8103C08FEFAF
:1015A0009FEFDC0180933E0690933F06A093400698
:1015B000B0934106BE016F5F7F4FCE0105962DDDD2
:1015C000892B29F089819A81AB81BC8104C08FEF7E
:1015D0009FEFAFEFBFE78093220690932306A0937F
:1015E0002406B0932506BE016F5F7F4FCE0105969E
:1015F00014DD892B29F089819A81AB81BC8104C0DB
:101600008FEF9FEFAFEFBFE78093260690932706FB
:10161000A0932806B093290640E050E060E070E017
:10162000CE01059669DC40E050E0BE016F5F7F4F60
:10163000CE01059661DC892B11F0898101C080E023
:101640008093470643E050E0BE016F5F7F4FCE01BD
:10165000059652DC892B29F089819A81AB81BC8166
:1016600003C08FEF9FEFDC0180933606909337061F
:10167000A0933806B093390643E050E0BE016F5F97
:101680007F4FCE01059638DC892B29F089819A811C
:10169000AB81BC8104C08FEF9FEFAFEFBFE78093BA
:1016A000320690933306A0933406B0933506C6C035
:1016B00046E050E065E174E087EB9AE00E94E9645F
:1016C000892BC1F48FEB9AE09E838D838091BE0AB3
:1016D0008C3209F0B3C040E050E0BE016F5F7F4F35
:1016E000CE01059609DC892B09F4A8C08981809375
:1016F0004606A4C046E050E06CE174E087EB9AE057
:101700000E94E964892B09F099C08DEB9AE09E83D1
:101710008D8343E050E0BE016F5F7F4FCE010596A1
:10172000EBDB892B29F089819A81AB81BC8103C0D5
:101730008FEF9FEFDC0180933E0690933F06A093CE
:101740004006B0934106ED81FE81CF0102969E8353
:101750008D8381818C3209F071C0BE016F5F7F4F34
:10176000CE0105965ADC892B29F089819A81AB81BB
:10177000BC8104C08FEF9FEFAFEFBFE780932206DD
:1017800090932306A0932406B0932506BE016F5FB5
:101790007F4FCE01059641DC892B29F089819A8102
:1017A000AB81BC8104C08FEF9FEFAFEFBFE78093A9
:1017B000260690932706A0932806B093290643E0B7
:1017C00050E0BE016F5F7F4FCE01059695DB892B00
:1017D00079F029813A814B815C81A8E1B4E10E94D2
:1017E000126820EA36E841E050E00E94F66704C043
:1017F0002FEF39EC4AE95BE320932E0630932F0656
:10180000409330065093310643E050E0BE016F5FD5
:101810007F4FCE01059670DB892B29F089819A8153
:10182000AB81BC8103C080E090E0DC0180932A069C
:1018300090932B06A0932C06B0932D0681E090E0A8
:1018400002C080E090E010920B0B10920A0B02C0D5
:1018500080E090E026960FB6F894DEBF0FBECDBFB5
:10186000DF91CF9108952F923F924F925F926F92A6
:101870007F928F929F92AF92BF92CF92DF92EF9220
:10188000FF920F931F93CF93DF93CDB7DEB72C97C3
:101890000FB6F894DEBF0FBECDBF1C01C982DA823D
:1018A000EB82FC820D831E832F83388769817A81C6
:1018B0008B819C810E94CA6620E530EE4FEE50E39A
:1018C0000E9429676B017C016D817E818F819885E3
:1018D0000E94CA6620E530EE4FEE50E30E94296771
:1018E0004B015C01C701B6010E94E0612B013C0184
:1018F000C501B4010E94E0619B01AC01C301B201CA
:101900000E942967F1016083718382839383C501FB
:10191000B4010E94B0639B01AC01C301B2010E94FB
:101920002967F1016483758386839783C701B601B4
:101930000E94B063F10160877187828793872C963C
:101940000FB6F894DEBF0FBECDBFDF91CF911F91D0
:101950000F91FF90EF90DF90CF90BF90AF909F904E
:101960008F907F906F905F904F903F902F90089551
:101970002F923F924F925F926F927F928F929F929F
:10198000AF92BF92CF92DF92EF92FF920F931F938D
:10199000CF93DF932C011092CD081092CC08C2E0B7
:1019A000D2E00CE012E0612C712CC12C84E0D82E26
:1019B000E12CF12C9AE0292E812C20E8922EA12CEA
:1019C000B12C3324339480919A0590E068167906FF
:1019D0000CF0A4C088810E944D1BAA81BB819C0190
:1019E0000E94E260A70196010E94F6678C819D81AA
:1019F000280F391F3F832E8388859985281739073B
:101A000010F439872887F80180818F3FE9F10E941F
:101A10004D1BAB85BC859C010E94E2609B01AC0123
:101A2000AAE0B0E00E941268A70196010E94F66742
:101A30006D857E85269EC001279E900D1124DC01B8
:101A4000A20FB31FB88BAF8789899A898A179B0722
:101A500014F4BA8BA98B92010E94E8609B01AC013F
:101A6000ABE5B0E00E941268A50194010E94F66700
:101A70008B899C89AD89BE89820F931FA41FB51FD6
:101A80008B8B9C8BAD8BBE8B8E819F81F8013997A0
:101A9000608161110AC0843FF1E09F0740F08C35FE
:101AA00023E0920730F073E005C0762F03C071E0A9
:101AB00001C072E04091690250916A02749F9001E6
:101AC000759F300D11248217930710F161110DC01D
:101AD000843FE1E09E0730F08C35F3E09F0720F073
:101AE00063E003C061E001C062E040916702509191
:101AF0006802649F9001659F300D1124821793073F
:101B000050F02FEF621A720A6796095E1F4F5BCF83
:101B10003092CD08DBCF3092CC08F3CFDF91CF915C
:101B20001F910F91FF90EF90DF90CF90BF90AF90FB
:101B30009F908F907F906F905F904F903F902F90ED
:101B40000895CF92DF92EF92FF92CF936B017C01C9
:101B500020919E0630919F064091A0065091A106CB
:101B60000E94596387FD0FC0C1E020916D02309142
:101B70006E0240916F0250917002C701B6010E943F
:101B8000C46618160CF4C0E08C2FCF91FF90EF9034
:101B9000DF90CF9008954F925F926F927F928F92D5
:101BA0009F92AF92BF92CF92DF92EF92FF920F93EC
:101BB0001F93CF93DF93CDB7DEB728970FB6F89476
:101BC000DEBF0FBECDBF4091690B50916A0B609193
:101BD0006B0B70916C0B8091670B9091680BA091CF
:101BE000650BB091660BA090630BB090640B809076
:101BF000610B9090620BE091600BEE2309F4E5C15C
:101C00009A01AB01281B390B410951090E94126846
:101C10006B017C01FFE0F594E794D794C794FA95A3
:101C2000D1F76E2F70E080E090E00E94CA669B01C1
:101C3000AC0160915C0B70915D0B80915E0B90919B
:101C40005F0B0E94E3610E944B622B013C01609399
:101C5000580B7093590B80935A0B90935B0B109217
:101C60005C0B10925D0B10925E0B10925F0B10924A
:101C7000600BC501BB0CAA0BBB0BBC01CD01ABE0DB
:101C8000660F771F881F991FAA95D1F78401990CB9
:101C9000220B330BA90198012C0D3D1D4E1D5F1D1C
:101CA0000E94F667C20ED31EE41EF51E20EAC21A79
:101CB0002FE0D20AE108F108A7019601C701B60199
:101CC0000E94B8609B01AC01BCE0559547953795E3
:101CD0002795BA95D1F729833A834B835C8300918A
:101CE000520B1091530BE0916003A091500BB091F7
:101CF000510BA70196010E941C684B015C018DE00D
:101D0000B594A794979487948A95D1F7A0914E0B98
:101D1000B0914F0B29813A814B815C810E941C68F4
:101D2000BB2797FDB095AB2F880D991DAA1DBB1D34
:101D30000296A11DB11D32E0B595A795979587959F
:101D40003A95D1F79C01AD0130584F4F5F4FA091AC
:101D50004C0BB0914D0B0E9412684B015C014FE09F
:101D6000B694A794979487944A95D1F7C801110F18
:101D7000AA0BBB0B9C01AD0162E0220F331F441F75
:101D8000551F6A95D1F72D833E834F835887A091C5
:101D9000560BB091570B29813A814B815C810E948F
:101DA0001C689B01AC017BE05595479537952795BD
:101DB0007A95D1F729833A834B835C83A091540BA6
:101DC000B091550BA70196010E941C68DC01CB0164
:101DD000FBE0B595A79597958795FA95D1F7298159
:101DE0003A814B815C81820F931FA41FB51F2D8107
:101DF0003E814F815885820F931FA41FB51F0E2E61
:101E000004C0880F991FAA1FBB1F0A94D2F702961D
:101E1000A11DB11D12E0B595A795979587951A95C7
:101E2000D1F7A3019201281B390B4A0B5B0B80E50C
:101E300093ECA0E0B0E0BC01CD0104C0959587957E
:101E400077956795EA95D2F70E94B86097FD0BC029
:101E5000660F771F881F991FA50194010E942268B1
:101E600069017A010AC0A50194010E9422686901F2
:101E70007A01CC0CDD1CEE1CFF1C9927F7FC9A950F
:101E80008F2D7E2D6D2D9B01AC010E94B8609B01B2
:101E9000AC01AEEDBBE00E9412684C01BB2497FC84
:101EA000B094AB2CA3E4B3EEA70196010E941E6888
:101EB000BB2797FDB095AB2F880D991DAA1DBB1DA3
:101EC0008153914FAF4FBF4F44E0B595A79597957C
:101ED00087954A95D1F7BC01CD016C0D7D1D8E1DF6
:101EE0009F1D6093480B7093490B80934A0B90930E
:101EF0004B0BC0905C03D0905D03E0905E03F090CC
:101F00005F030E94CA6620E836EE45EC57E40E9463
:101F1000E361A70196010E9464639B01AC0160E04C
:101F200070E080E89FE30E94026120E03AE24DE227
:101F300057E40E9429676B017C016093440B709306
:101F4000450B8093460B9093470B80903B039090FA
:101F50003C03A0903D03B0903E034090FF0550909D
:101F60000006609001067090020620E030E040E834
:101F70005FE3C501B4010E94C4668823F1F0A501A6
:101F8000940160E070E080E89FE30E9402619B01A1
:101F9000AC01C301B2010E9429672B013C01A501DC
:101FA0009401C701B6010E9429679B01AC01C301DE
:101FB000B2010E9403616B017C01C092FF05D092C7
:101FC0000006E0920106F092020628960FB6F894F9
:101FD000DEBF0FBECDBFDF91CF911F910F91FF905C
:101FE000EF90DF90CF90BF90AF909F908F907F90B9
:101FF0006F905F904F900895CF92DF92EF92FF9293
:102000008091430B66EF882309F474C087E790E062
:102010000E943C1E63E070E087E790E00E94D633A8
:102020008DE69FE00E9423196C018DE69FE00E94DF
:1020300023190D2C000CEE08FF087601DD24CC24BA
:10204000092E000CAA0BBB0BBA2FA92F982F88279B
:10205000C82AD92AEA2AFB2A8DE69FE00E94231982
:10206000AC01990F660B770BD701C601842B952B1A
:10207000A62BB72B4091600328E030E0241B3109E8
:10208000BC01CD0104C096958795779567952A95F3
:10209000D2F70E94CA669B01AC0160915C0B709103
:1020A0005D0B80915E0B90915F0B0E9403616093CA
:1020B0005C0B70935D0B80935E0B90935F0B809134
:1020C000600B8F5F8093600B8091420B843059F4DA
:1020D0004EE264EF87E790E00E94DB1D1092420B16
:1020E0001092430B01C0ADD98091420B8F5F80935A
:1020F000420B26C087E790E00E943C1E62E070E041
:1021000087E790E00E94D6338DE69FE00E94231976
:10211000F82E8DE69FE00E94231920E030E03F2D4D
:10212000822B932BA0E0B0E08093690B90936A0B15
:10213000A0936B0BB0936C0B84D981E08093430B1D
:10214000FF90EF90DF90CF900895CF92DF92EF92C3
:10215000FF92CF93DF93C9E1D0E0C12CD12C76015F
:102160004BDF19DD2091440B3091450B4091460B1C
:102170005091470BC701B6010E9403616B017C01BE
:102180006CE070E080E090E00E94911B219741F7A5
:1021900020E030E048EC51E4C701B6010E94E36161
:1021A0006093FB057093FC058093FD059093FE05FD
:1021B000DF91CF91FF90EF90DF90CF9008958F92B5
:1021C0009F92AF92BF92CF92DF92EF92FF9281E007
:1021D000809360031092480B1092490B10924A0BA7
:1021E00010924B0B1092FB051092FC051092FD050E
:1021F0001092FE058EEA9CEDA2E4BEE380935C03A0
:1022000090935D03A0935E03B0935F0360ED87E757
:1022100090E00E943C1E61E070E087E790E00E9441
:10222000D6338DE69FE00E942319853589F480918D
:102230009B0590919C05A0919D05B0919E0588609D
:1022400080939B0590939C05A0939D05B0939E055C
:102250006AEA87E790E00E943C1E66E170E087E74B
:1022600090E00E94D6330E942D1E9093530B8093D2
:10227000520B0E942D1E9093550B8093540B0E947D
:102280002D1E9093510B8093500B0E942D1E909306
:102290004D0B80934C0B0E942D1E9093660B8093E8
:1022A000650B0E942D1E9093680B8093670B0E9414
:1022B0002D1E90934F0B80934E0B0E942D1E9093DA
:1022C000570B8093560B0E942D1E9093410B8093C9
:1022D000400B0E942D1E9093640B8093630B0E9411
:1022E0002D1E9093620B8093610B4EE264EF87E7A3
:1022F00090E00E94DB1D1092430B1092420B7CDE9B
:102300004ADC65E070E080E090E00E94911B74DEA2
:1023100042DC6AE070E080E090E00E94911B15DFF3
:102320008090FB059090FC05A090FD05B090FE0507
:10233000A50194016091440B7091450B8091460B6F
:102340009091470B0E9402616B017C0120E030E01C
:10235000A9010E94596318167CF420E030E040E2A5
:1023600051E4C701B6010E94596318167CF46AE172
:1023700070E080E090E0D1CF20E030E040E251EC2E
:10238000C701B6010E94C46687FDF1CF8092FF05A8
:1023900090920006A0920106B0920206FF90EF9084
:1023A000DF90CF90BF90AF909F908F9008952F9225
:1023B0003F924F925F926F927F928F929F92AF92D5
:1023C000BF92CF92DF92EF92FF920F931F93CF9322
:1023D000DF93CDB7DEB760970FB6F894DEBF0FBEC0
:1023E000CDBF2B013C0149015A0163E08EE190E031
:1023F0000E943C1E66E070E08EE190E00E94D633C1
:102400000E942D1E0DE11DE0919581959109BC0161
:10241000990F880B990B0E94CA66D8016D937D9322
:102420008D939C9313970E942D1E919581959109F0
:10243000BC01990F880B990B0E94CA66F80160874E
:102440007187828793870E942D1EBC01990F880B8C
:10245000990B0E94CA66D80114966D937D938D9353
:102460009C93179741E062E08EE190E00E94DB1DB3
:1024700084EA282E86E0382EF101208131814281C4
:102480005381D8016D917D918D919C910E94036142
:102490006B017C0160933C0B70933D0B80933E0B72
:1024A00090933F0BF1012481358146815781D801FA
:1024B00014966D917D918D919C9117970E94036167
:1024C00069837A838B839C836093380B7093390B79
:1024D00080933A0B90933B0BF10120853185428527
:1024E0005385D80118966D917D918D919C911B9784
:1024F0000E9403616D837E838F8398876093340B82
:102500007093350B8093360B9093370BE7E7F6E02B
:10251000C082D182E282F38289819A81AB81BC81BF
:1025200084839583A683B7838D819E81AF81B8858F
:1025300080879187A287B387C301B2010E94E061BF
:1025400069877A878B879C87C301B2010E94B06339
:102550002B013C01C501B4010E94E0619B01AC016B
:10256000C501B4012D873E874F87588B0E94B06309
:102570004B015C012D853E854F855889C701B60109
:102580000E9429676B017C01A301920169817A8114
:102590008B819C810E942967A50194010E94296773
:1025A0009B01AC01C701B6010E9403616B017C0174
:1025B00029853A854B855C856D817E818F819885E3
:1025C0000E942967A50194010E9429679B01AC0123
:1025D000C701B6010E9403616B017C0129853A8520
:1025E0004B855C8569817A818B819C810E942967FA
:1025F0004B015C01A30192016D817E818F819885E1
:102600000E9429679B01AC01C501B4010E940261CF
:102610004B015C01A7019601C701B6010E94296721
:102620002B013C01A5019401C501B4010E94296759
:102630009B01AC01C301B2010E9403610E94BA6315
:102640002B013C019B01AC01C701B6010E94E36173
:1026500060939205709393058093940590939505EC
:10266000C501B4019058A30192010E94E3616093F7
:1026700096057093970580939805909399056096B9
:102680000FB6F894DEBF0FBECDBFDF91CF911F9183
:102690000F91FF90EF90DF90CF90BF90AF909F9001
:1026A0008F907F906F905F904F903F902F90089504
:1026B0006AE070E080E090E00E94911B8EE190E083
:1026C0000E94F81D803189F480919B0590919C05B2
:1026D000A0919D05B0919E05846080939B05909389
:1026E0009C05A0939D05B0939E0540E261E08EE1BC
:1026F00090E00E94DB1D64E170E080E090E00E94C9
:10270000911B41E062E08EE190E00E94DB1D64E1FC
:1027100070E080E090E00E94911B20E030E0A90191
:10272000CA01B90144CE7F928F929F92AF92BF921D
:10273000CF92DF92EF92FF920F931F93CF93DF938D
:102740001F92CDB7DEB7062F29EF280F2B3108F4E3
:102750003BC0823208F08B51282F30E099E4899FEA
:10276000F0011124E00FF11DEE5DF74F808190E044
:10277000A0E0B0E0ABBFFC018791902F96959695B5
:1027800096954AE0429FF001439FF00D1124E90F16
:10279000F11DE254F84F408150E060E070E06BBF03
:1027A000FA01479150E0077020E830E002C035950B
:1027B00027950A95E2F742235323452B09F081958B
:1027C000082E000C990B6CC030E061110CC0F901AF
:1027D000EC58F84F808190E0A0E0B0E0ABBFFC0186
:1027E000879190E05DC0A9014C58584FFA01808153
:1027F00090E0A0E0B0E0ABBFFC01179160E070E0BA
:10280000E12CF12C6217730778F4FB01EC58F84FB8
:1028100085A190E0A0E0B0E0ABBFFC018791E80E9D
:10282000F11C6F5F7F4FEECF6701712CFA0185A01D
:10283000912CA12CB12CABBEF40187919601280FED
:10284000311DE216F30648F5071538F141E050E076
:10285000B701645D7C4FCE0101960E94206589819D
:10286000282F2F7030E084FF03C031952195310966
:1028700082958695877090E0472D642F671970E0E8
:10288000861797072CF0041718F0120F4F5FF5CF3B
:10289000FFEFEF1AFF0A742ECECF812F110F990B85
:1028A0000F90DF91CF911F910F91FF90EF90DF90EC
:1028B000CF90BF90AF909F908F907F900895880F9A
:1028C000991F90939B0080939A0090939D00809312
:1028D0009C0090939900809398009093A900809316
:1028E000A80020910002309101022630310519F034
:1028F0002830310599F49093AB008093AA0090930F
:10290000AD008093AC002830310541F490938900EC
:102910008093880090938B0080938A000895809123
:10292000DE059091DF05880F991F90939B0080939F
:102930009A008091E0059091E105880F991F90938E
:102940009D0080939C008091E2059091E305880FA3
:10295000991F90939900809398008091E40590913D
:10296000E505880F991F9093A9008093A800809196
:102970000002909101028630910519F0883091058E
:1029800051F52091E6053091E705220F331F309372
:10299000AB002093AA002091E8053091E905220FB1
:1029A000331F3093AD002093AC000897A1F48091C1
:1029B000EA059091EB05880F991F90938900809309
:1029C00088008091EC059091ED05880F991F9093F8
:1029D0008B0080938A000895CF93DF9362E383E5B1
:1029E00090E00E943C1E66E070E083E590E00E946B
:1029F000D6330E941B1EC6EAD5E0092E000CAA0B96
:102A0000BB0B4C815D816E817F81840F951FA61F5A
:102A1000B71F8C839D83AE83BF830E941B1E092E2C
:102A2000000CAA0BBB0B488159816A817B81840F02
:102A3000951FA61FB71F88839983AA83BB830E9413
:102A40001B1E092E000CAA0BBB0B488559856A85F5
:102A50007B85840F951FA61FB71F88879987AA8734
:102A6000BB878091A5058F5F8093A505DF91CF91EE
:102A700008958F929F92AF92BF92CF92DF92EF9282
:102A8000FF920F931F93CF93DF93C0E0D0E00BE052
:102A900017E2C03981E0D80731F09EDFC801019705
:102AA000F1F72196F6CFC0EBD6E086ECE82E85E074
:102AB000F82E06EA15E089909990A990B990F8014E
:102AC00060817181828193810E94CA6620E030E03A
:102AD00048EC53E40E94E361A50194010E94296738
:102AE000F70161937193819391937F01F8011192A2
:102AF0001192119211928F01F6E0CC3BDF07D9F6CB
:102B00001092A5058091C6059091C705A091C805B2
:102B1000B091C905B0588093B6059093B705A093BE
:102B2000B805B093B9058091CA059091CB05A091E5
:102B3000CC05B091CD05B0588093BA059093BB05F4
:102B4000A093BC05B093BD05C090CE05D090CF0535
:102B5000E090D005F090D105A70196016DE677EEE3
:102B60008CE191EC0E9402619B01AC016093BE0577
:102B70007093BF058093C0059093C105C701B6014E
:102B80000E940361DC01CB01BF778093C205909363
:102B9000C305A093C405B093C505DF91CF911F91E4
:102BA0000F91FF90EF90DF90CF90BF90AF909F90EC
:102BB0008F900895CF92DF92EF92FF920F931F9321
:102BC000CF93DF93CDB7DEB7C456D1090FB6F894D3
:102BD000DEBF0FBECDBF8E010D591F4FF801118210
:102BE0001082F12C8F2D880F9DE1E92EE80ECE0189
:102BF00001966C016E2D88E690E00E943C1E62E01A
:102C000070E088E690E00E94D6330E942D1EF60107
:102C1000819391936F016AE070E080E090E081D54C
:102C2000C016D10639F7F11010C0B801CE010196D7
:102C30000E942134F801208131812530310554F57D
:102C40009093A2058093A1051FC0F1E0B801CE01C9
:102C50000196FF120DC00E942134F80120813181BC
:102C600025303105BCF49093A00580939F050CC0DE
:102C70000E942134F801208131812530310554F43E
:102C80009093A4058093A305F394F3E0FF12AACFD9
:102C900081E001C080E0CC59DF4F0FB6F894DEBF71
:102CA0000FBECDBFDF91CF911F910F91FF90EF909D
:102CB000DF90CF9008956091D2087091D3088091F1
:102CC000D4089091D5080E94C866EEE3F7E0148A14
:102CD000158A168A178A608B718B828B938B7C96F0
:102CE00027E0EA3CF20799F708952F923F924F921E
:102CF0005F926F927F928F929F92AF92BF92CF928C
:102D0000DF92EF92FF920F931F93CF93DF93CDB794
:102D1000DEB72A970FB6F894DEBF0FBECDBF2B01EA
:102D20003C0129833A834B835C831A87098760912E
:102D3000D2087091D3088091D4089091D5080E9450
:102D4000C8666B017C01D80150962D913D914D9143
:102D50005C9153970E94026120E034E244E759E419
:102D60000E94E3614B015C01F801C08AD18AE28ACA
:102D7000F38A29813A814B815C81C301B2010E94AF
:102D800002616D837E838F83988780910B068823F1
:102D9000C9F0A50194016D817E818F8198850E9483
:102DA00029679B01AC01D80154966D917D918D915D
:102DB0009C9157970E940361F801648B758B868BF9
:102DC000978B08C0A985BA8554961D921D921D92B5
:102DD0001C925797E985FA851489058936882788D2
:102DE000C08CD18CE28CF38C2601370177FA709479
:102DF00077F87094A3019201612F702F832D922D8B
:102E00000E94C46687FD11C0A7019601612F702F33
:102E1000832D922D0E94596318164CF0812F902F0C
:102E2000A32DB22D6C017D0102C073016201A98541
:102E3000BA855496CD92DD92ED92FC9257971C96EE
:102E40002D913D914D915C911F9769817A818B8184
:102E50009C810E940261E985FA8520853185428541
:102E600053850E9429672B013C0120E030E048ECAB
:102E700052E4C501B4010E9429679B01AC01C30162
:102E8000B2010E94E3614B015C0189819A81AB81AF
:102E9000BC81E985FA8584879587A687B7872081D5
:102EA0003181428153816D817E818F8198850E941D
:102EB00029672B013C01A985BA8514962D913D9176
:102EC0004D915C911797C701B6010E9429679B013C
:102ED000AC01C301B2010E940361A50194010E94EB
:102EE00003612A960FB6F894DEBF0FBECDBFDF9107
:102EF000CF911F910F91FF90EF90DF90CF90BF90F7
:102F0000AF909F908F907F906F905F904F903F9089
:102F10002F90089580914606823028F081E09091AC
:102F20004706963008F480E00895E2E2F6E08FEF7D
:102F30009FEFAFEFBFE780839183A283B383848346
:102F40009583A683B78380879187A287B3874FEF46
:102F500059EC6AE97BE34487558766877787808BDE
:102F6000918BA28BB38B8FEF9FEFDC01848B958BC2
:102F7000A68BB78B808F918FA28FB38F14A210A2D4
:102F800011A212A213A215A2848F958FA68FB78FBC
:102F90000895FC01A089B1898C91A689B78982FD29
:102FA0000FC09C91818D8F5F8F73228D821749F0A6
:102FB000218DDF01A20FB11D5D969C93818F089535
:102FC0008C910895FC01918D828D981761F0828D0E
:102FD000DF01A80FB11D5D968C91928D9F5F9F734D
:102FE000928F90E008958FEF9FEF0895FC01918DEF
:102FF000828D981731F0828DE80FF11D858D90E05C
:1030000008958FEF9FEF0895FC01918D228D892FF8
:1030100090E0805C9F4F821B91098F7399270895E0
:1030200086E99DE0F1DF21E0892B09F420E0822F81
:10303000089583E39EE0E8DF21E0892B09F420E096
:10304000822F089580ED9EE0DFDF21E0892B09F4D7
:1030500020E0822F0895FC01848DDF01A80FB11DAF
:10306000A35ABF4F2C91848D90E001968F739927BE
:10307000848FA689B7892C93A089B1898C918064AB
:103080008C93938D848D981306C00288F389E02D6C
:1030900080818F7D80830895EF92FF920F931F931D
:1030A000CF93DF93EC0181E0888F9B8D8C8D9813FB
:1030B00005C0E889F989808185FD23C0F62E0B8D36
:1030C00010E00F5F1F4F0F731127E02E8C8DE81259
:1030D0000BC00FB607FCFACFE889F989808185FF1C
:1030E000F5CFCE01B8DFF2CF8B8DFE01E80FF11DD9
:1030F000E35AFF4FF0820B8FEA89FB89808180625F
:1031000007C0EE89FF896083E889F989808180643E
:10311000808381E090E0DF91CF911F910F91FF902C
:10312000EF900895CF93DF93EC01888D8823C1F051
:10313000EA89FB89808185FD05C0A889B9898C91C0
:1031400086FD0EC00FB607FCF5CF808185FFF2CF5C
:10315000A889B9898C9185FFEDCFCE017CDFE8CFBE
:10316000DF91CF91089580E090E0892B19F06ADF1C
:1031700081111BC080E090E0892B19F05ADF81118A
:1031800017C080E090E0892B41F080E090E0892B2F
:1031900021F00E94000081110EC080E090E0892B98
:1031A00079F03EDF81110AC008950E940000E2CF4D
:1031B0000E940000E6CF0E940000EFCF0C940000B8
:1031C000089585ED8093BC008091BC0084FDFCCF08
:1031D0001092710D08954091930B262F30E0240F2B
:1031E000311D21323105DCF42091710D2430C9F4F8
:1031F000FC0180E090E0861758F43091930B219108
:10320000DC01AF58B44FA30FB11D2C930196F3CF3F
:103210008091930B680F6093930B80E0089581E099
:10322000089582E008950895E0912A0D8091290D76
:10323000E81730F4F0E0E55DF24F808190E008950A
:103240008FEF9FEF089590912A0D8091290D981787
:1032500050F4E92FF0E0E55DF24F208130E09F5F10
:1032600090932A0D02C02FEF3FEFC901089580917E
:10327000290D90E020912A0D821B91090895CF928B
:10328000DF92EF92FF920F931F93CF93DF937C0116
:10329000262F972F8A018091720D882391F0C62FD7
:1032A000D72F6E01C40ED51ECC15DD0569F06991CE
:1032B000D701ED91FC910190F081E02DC7011995A6
:1032C000F3CF642F822F87DFC801DF91CF911F9149
:1032D0000F91FF90EF90DF90CF900895CF93DF9301
:1032E0001F92CDB7DEB769832091720D2223D1F0F2
:1032F0002091950D203240F021E030E0FC01338335
:10330000228380E090E014C08091730DE82FF0E0FC
:10331000EC58F24F998190838F5F8093730D809367
:10332000950D04C061E0CE01019655DF81E090E08B
:103330000F90DF91CF9108950E94E5641F920F9244
:103340000FB60F9211240BB60F922F933F934F930A
:103350005F936F937F938F939F93AF93BF93EF93FD
:10336000FF9386E99DE077DEFF91EF91BF91AF91EA
:103370009F918F917F916F915F914F913F912F918D
:103380000F900BBE0F900FBE0F901F9018951F92BD
:103390000F920FB60F9211240BB60F922F933F93FB
:1033A0004F935F936F937F938F939F93AF93BF934D
:1033B000EF93FF9386E99DE0ECDDFF91EF91BF91E4
:1033C000AF919F918F917F916F915F914F913F91BD
:1033D0002F910F900BBE0F900FBE0F901F9018955E
:1033E0001F920F920FB60F9211240BB60F922F93CC
:1033F0003F934F935F936F937F938F939F93AF937D
:10340000BF93EF93FF9383E39EE025DEFF91EF915F
:10341000BF91AF919F918F917F916F915F914F91EC
:103420003F912F910F900BBE0F900FBE0F901F90EA
:1034300018951F920F920FB60F9211240BB60F9290
:103440002F933F934F935F936F937F938F939F93AC
:10345000AF93BF93EF93FF9383E39EE09ADDFF91D9
:10346000EF91BF91AF919F918F917F916F915F91FC
:103470004F913F912F910F900BBE0F900FBE0F9069
:103480001F9018951F920F920FB60F9211240BB632
:103490000F922F933F934F935F936F937F938F93ED
:1034A0009F93AF93BF93EF93FF9380ED9EE0D3DDA7
:1034B000FF91EF91BF91AF919F918F917F916F910C
:1034C0005F914F913F912F910F900BBE0F900FBEC8
:1034D0000F901F9018951F920F920FB60F92112404
:1034E0000BB60F922F933F934F935F936F937F93FE
:1034F0008F939F93AF93BF93EF93FF9380ED9EE0E5
:1035000048DDFF91EF91BF91AF919F918F917F9196
:103510006F915F914F913F912F910F900BBE0F9044
:103520000FBE0F901F901895362F90E0FC01E454C9
:10353000F44F4491FC01EA58F44F2491FC01E05D02
:10354000F44F9491992309F46BC0442309F455C0B6
:1035500050E0FA013197E231F10508F04EC08827BA
:10356000EB55FF4F8F4F0C94DA60809180008F777E
:1035700007C0809180008F7D03C080918000877F8D
:10358000809380003AC084B58F7702C084B58F7D68
:1035900084BD33C08091B0008F7703C08091B000AC
:1035A0008F7D8093B00029C0809190008F7707C0F5
:1035B000809190008F7D03C080919000877F8093E1
:1035C00090001BC08091A0008F7707C08091A00061
:1035D0008F7D03C08091A000877F8093A0000DC0E5
:1035E000809120018F7707C0809120018F7D03C0DB
:1035F00080912001877F80932001E92FF0E0EE0F7A
:10360000FF1FEA5EF44FA591B4918FB7F894EC9147
:10361000311103C020952E2301C02E2B2C938FBF78
:103620000895CF93DF9390E0FC01EA58F44F249182
:10363000FC01E05DF44F8491882361F190E0880FF4
:10364000991FFC01E450F54FC591D491FC01EA5E4D
:10365000F44FA591B491611109C09FB7F894888186
:10366000209582238883EC912E230BC0623061F475
:103670009FB7F8943881822F809583238883EC91BB
:103680002E2B2C939FBF06C08FB7F894E8812E2B6A
:1036900028838FBFDF91CF910895863308F086533A
:1036A00090917B00282F2870977F922B90937B001E
:1036B0008770806480937C0080917A00806480931E
:1036C0007A0080917A0086FDFCCF8091780020916D
:1036D000790090E0922B08953FB7F8948091B90B50
:1036E0009091BA0BA091BB0BB091BC0B26B5A89BD7
:1036F00005C02F3F19F00196A11DB11D3FBFBA2F84
:10370000A92F982F8827820F911DA11DB11DBC01E3
:10371000CD0142E0660F771F881F991F4A95D1F7A8
:1037200008958F929F92AF92BF92CF92DF92EF92C5
:10373000FF926B017C01D0DF4B015C01C114D1040D
:10374000E104F104E9F0C8DFDC01CB018819990933
:10375000AA09BB09883E9340A105B10578F321E091
:10376000C21AD108E108F10888EE880E83E0981E9D
:10377000A11CB11CC114D104E104F10421F7DECF76
:10378000FF90EF90DF90CF90BF90AF909F908F9081
:103790000895CF92DF92EF92FF920F931F93CF93F2
:1037A000DF938C01FC011082D0E0C0E0E62EF12C0A
:1037B000F1E0EF1AF10880ED9EE026DC892B49F458
:1037C00061E070E080E090E0ACDFDF5FCC2399F057
:1037D0000BC06801CC0ED11C80ED9EE0F3DBF6013E
:1037E0008083CF5FD0E049F0F801EC0FF11D3197F5
:1037F00080818B3339F0DA3028F48C2F90E08E15ED
:103800009F05CCF2F801EC0FF11D1082DF91CF91F2
:103810001F910F91FF90EF90DF90CF9008951F922E
:103820000F920FB60F9211242F933F938F939F9374
:10383000AF93BF9380916D0B90916E0BA0916F0B26
:10384000B091700B3091B80B23E0230F2D3720F48B
:103850000196A11DB11D05C026E8230F0296A11DEA
:10386000B11D2093B80B80936D0B90936E0BA093BA
:103870006F0BB093700B8091B90B9091BA0BA09124
:10388000BB0BB091BC0B0196A11DB11D8093B90B70
:103890009093BA0BA093BB0BB093BC0BBF91AF91AD
:1038A0009F918F913F912F910F900FBE0F901F907E
:1038B00018958F929F92AF92BF92CF92DF92EF9224
:1038C000FF92CF934B015C0169017A0120E030E067
:1038D000A9010E94596318164CF420E030E0A901B8
:1038E000C701B6010E94C46687FD14C020E030E025
:1038F000A901C501B4010E94C46687FF0DC0C1E0E3
:1039000020E030E0A901C701B6010E9459631816F2
:1039100024F002C0C1E001C0C0E08C2FCF91FF9025
:10392000EF90DF90CF90BF90AF909F908F900895D1
:103930004F925F926F927F928F929F92AF92BF92BF
:10394000CF92DF92EF92FF920F931F93CF93DF936B
:1039500000D01F92CDB7DEB78C01DC014D905D9099
:103960006D907C90139714968D909D90AD90BC9027
:10397000179718968D919D910D90BC91A02D8983DC
:103980009A83AB83BC83A3019201C301B2010E945D
:1039900029676B017C01A5019401C501B4010E9456
:1039A00029679B01AC01C701B6010E9403616B014D
:1039B0007C0129813A814B815C81CA01B9010E9455
:1039C00029679B01AC01C701B6010E9403610E94F7
:1039D000BA636B017C019B01AC01C301B2010E947F
:1039E000E361F8016083718382839383A701960169
:1039F000C501B4010E94E361D80114966D937D93D3
:103A00008D939C931797A701960169817A818B8189
:103A10009C810E94E361F8016087718782879387A8
:103A20000F900F900F900F90DF91CF911F910F91FA
:103A3000FF90EF90DF90CF90BF90AF909F908F90CE
:103A40007F906F905F904F9008958F929F92AF926A
:103A5000BF92EF92FF920F931F93CF93DF937C015E
:103A6000EB018A01FA0120853185428553856C81FD
:103A70007D818E819F810E9429674B015C01F80145
:103A80002481358146815781688579858A859B8522
:103A90000E9429679B01AC01C501B4010E9402612B
:103AA000F7016083718382839383F80120813181E0
:103AB00042815381688579858A859B850E94296723
:103AC0004B015C01F8012085318542855385688171
:103AD00079818A819B810E9429679B01AC01C50184
:103AE000B4010E940261F701648375838683978322
:103AF000F8012481358146815781688179818A81E5
:103B00009B810E9429674B015C01F8012081318172
:103B1000428153816C817D818E819F810E942967C2
:103B20009B01AC01C501B4010E940261F7016087ED
:103B3000718782879387DF91CF911F910F91FF90BB
:103B4000EF90BF90AF909F908F900895AF92BF92EB
:103B5000CF92DF92EF92FF920F931F93CF93DF9359
:103B6000EC018B015C018CE0A80EB11CC12CD12CA6
:103B700076016991799189919991F8012191319119
:103B8000419151918F010E9429679B01AC01C701AE
:103B9000B6010E9403616B017C01CA15DB0549F780
:103BA000DF91CF911F910F91FF90EF90DF90CF9019
:103BB000BF90AF900895CF93DF931F92CDB7DEB73C
:103BC00091E09093720D8093940D1092730D10926A
:103BD000950D8DE69FE0498381DB4981642F8DE659
:103BE0009FE07CDB81E00F90DF91CF910C947933E3
:103BF000CF93DF93EC0181E08093720DC093940D1D
:103C00001092730D1092950D60E08DE69FE066DBDB
:103C100081E00E94793364E670E080E090E081DD2D
:103C200061E070E0CE010E94D6338DE69FE00BDBB1
:103C3000DF91CF910895CF93DF938DE69FE003DB73
:103C4000EC018DE69FE0FFDA20E030E0382FC9017B
:103C50008C2B9D2BDF91CF910895CF938DE69FE024
:103C6000F2DAC82F8DE69FE0EEDA20E030E03C2F5C
:103C7000822B932BCF91089591E09093720D8093B6
:103C8000940D1092730D1092950D8DE69FE026DB3A
:103C900081E00C9479331F920F920FB60F9211248A
:103CA0000BB60F922F933F934F935F936F937F9336
:103CB0008F939F93AF93BF93EF93FF938091B9003E
:103CC000887F803609F49CC068F5883209F45BC0AF
:103CD00090F4803109F454C038F4882309F4F6C014
:103CE000883009F44DC0F5C0883109F44CC08032E9
:103CF00009F45DC0EEC0803409F468C048F4803334
:103D000009F455C0883309F0E4C080936F0DD8C022
:103D1000803509F44FC0883509F45DC0883409F056
:103D2000D8C0D6C0883909F4C7C0A8F4883709F4C8
:103D300067C038F4883609F463C0803709F460C07E
:103D4000C8C0883809F4B8C0803909F45FC0803829
:103D500009F0BFC05BC0803B09F486C038F4803AEC
:103D600009F466C0883A09F47FC0B3C0803C09F406
:103D7000A7C0883C09F4A4C0883B09F48AC0A9C044
:103D800080914C0D10C090916E0D80916D0D981723
:103D900070F5E0916E0D81E08E0F80936E0DF0E076
:103DA000E35BF24F80818093BB0085EC86C08093FB
:103DB0006F0D8EC0E0916E0D81E08E0F80936E0DC1
:103DC0008091BB00F0E0E35BF24F808390916E0D39
:103DD00080916D0D6EC0E0916E0D81E08E0F80932D
:103DE0006E0D8091BB00F0E0E35BF24F8083809129
:103DF000700D81116DC081E080934B0D84EA61C02C
:103E000083E08093710D1092B70BCFCF8091B70BE9
:103E1000803208F051C0E091B70B81E08E0F8093A3
:103E2000B70B8091BB00F0E0E956F44F8083BDCF23
:103E300085EC8093BC001092710D8091B70B80329D
:103E400030F4E091B70BF0E0E956F44F1082609146
:103E5000B70B70E0E091950BF091960B87E99BE032
:103E600019951092B70B35C084E08093710D1092B4
:103E7000940B1092930BE091910BF091920B19958A
:103E80008091930B811105C081E08093930B109278
:103E9000710BE091940B81E08E0F8093940BF0E016
:103EA000EF58F44F80818093BB009091940B8091E8
:103EB000930B981708F479CF85E88093BC0009C06C
:103EC00085EC8093BC001092710D03C010926F0DB1
:103ED00078D9FF91EF91BF91AF919F918F917F9191
:103EE0006F915F914F913F912F910F900BBE0F906B
:103EF0000FBE0F901F901895CF92DF92EF92FF9216
:103F0000CF93DF936A017B01E901BC0180ED9EE064
:103F10000E94BF3567E275E080ED9EE00E94BF35EC
:103F200080919B0590919C05A0919D05B0919E0567
:103F3000B701A601482359236A237B23452B462B2F
:103F4000472B31F463E274E080ED9EE00E94BF35C0
:103F5000CE01DF91CF91FF90EF90DF90CF900C9446
:103F60009A358CE20C944C34CF93DF93CDB7DEB707
:103F700060970FB6F894DEBF0FBECDBF19821A82CC
:103F80001B821C82FE0135968CE0DF011D928A9512
:103F9000E9F760E1CE010196FCDBCE0101960E94BB
:103FA000FA6460960FB6F894DEBF0FBECDBFDF9106
:103FB000CF910895CF93DF93CDB7DEB72F970FB68C
:103FC000F894DEBF0FBECDBF19821A821B821C82FD
:103FD000FE0135968BE0DF011D928A95E9F76FE0CF
:103FE000CE010196D6DBCE0101960E94F7642F9692
:103FF0000FB6F894DEBF0FBECDBFDF91CF9108950D
:10400000CF92DF92EF92FF920F931F9320913F0286
:10401000309140022E3F8FEF380709F097C08CE0B7
:10402000EFE4F6E0A1EEBBE001900D928A95E1F796
:104030008CE0E1E7F2E0A5EDBBE001900D928A95FE
:10404000E1F78CE0EDE7F2E0A9ECBBE001900D9226
:104050008A95E1F7C090E10BD090E20BE090E30B82
:10406000F090E40B0091E50B1091E60B2091E70B2B
:104070003091E80B4091E90B5091EA0B6091EB0B0A
:104080007091EC0B8DEB9BE00E94330CC090D50B34
:10409000D090D60BE090D70BF090D80B0091D90BB5
:1040A0001091DA0B2091DB0B3091DC0B4091DD0B92
:1040B0005091DE0B6091DF0B7091E00B8AE09CE089
:1040C0000E94330C4AE05CE06DEB7BE082E59CE013
:1040D000BCDC82E59CE02CDC8091520C9091530C6E
:1040E000A091540CB091550CB05880935E0C9093F5
:1040F0005F0CA093600CB093610C8091560C909172
:10410000570CA091580CB091590CB0588093620C88
:104110009093630CA093640CB093650C80915A0C3F
:1041200090915B0CA0915C0CB0915D0CB0588093A9
:10413000660C9093670CA093680CB093690C8FEF9A
:104140009FEF9093400280933F02B3C0A9014F5F5D
:104150005F4F5093400240933F028091A20690919E
:10416000A3060197481759070CF0A5C08CE0849F5F
:10417000F001859FF00D1124EF58FD4FA1EEBBE03B
:10418000982F01900D929A95E1F74F5F5F4F849FB2
:10419000F001859FF00D1124EF58FD4FA5EDBBE018
:1041A000982F01900D929A95E1F72D5F3F4F829FD6
:1041B000F001839FF00D1124EF58FD4FA9ECBBE0F7
:1041C00001900D928A95E1F7C090E10BD090E20B3F
:1041D000E090E30BF090E40B0091E50B1091E60BFF
:1041E0002091E70B3091E80B4091E90B5091EA0BDD
:1041F0006091EB0B7091EC0B8DEB9BE00E94330C0C
:10420000C090D50BD090D60BE090D70BF090D80B88
:104210000091D90B1091DA0B2091DB0B3091DC0B64
:104220004091DD0B5091DE0B6091DF0B7091E00B44
:104230008AE09CE00E94330C4AE05CE06DEB7BE09E
:1042400082E59CE002DC82E59CE072DB8091520C0E
:104250009091530CA091540CB091550CB058809390
:104260005E0C90935F0CA093600CB093610C8091F6
:10427000560C9091570CA091580CB091590CB05815
:104280008093620C9093630CA093640CB093650CC4
:1042900080915A0C90915B0CA0915C0CB0915D0CDC
:1042A000B0588093660C9093670CA093680CB09301
:1042B000690C80E031C080914C0390914D03A09136
:1042C0004E03B0914F038093610390936203A093D8
:1042D0006303B09364038091500390915103A091C4
:1042E0005203B09153038093650390936603A093A8
:1042F0006703B09368038091540390915503A09194
:104300005603B09157038093690390936A03A09377
:104310006B03B0936C0381E01F910F91FF90EF90BE
:10432000DF90CF9008952F923F924F925F926F92BD
:104330007F928F929F92AF92BF92CF92DF92EF9235
:10434000FF920F931F93CF93DF93CDB7DEB76097A4
:104350000FB6F894DEBF0FBECDBF80918F0690914F
:1043600090060197029708F049C0C0908306D0904C
:104370008406E0908506F090860660910C067091A8
:104380000D068091D2059091D305681B790B809121
:10439000080690910906680F791F072E000C880BFC
:1043A000990B0E94CA6626EA3BE944EC5AE30E9454
:1043B000296702E917E0A70196010E9475164B01D3
:1043C0005C01C0908706D0908806E0908906F09046
:1043D0008A06F7FAF094F7F8F09480910E0690911F
:1043E0000F062091D4053091D505821B930B2091A7
:1043F000060630910706820F931F41C08091CB08BB
:10440000813009F047C0C0908306D0908406E090C8
:104410008506F090860660910C0670910D068091DD
:10442000D2059091D305681B790B072E000C880BE1
:10443000990B0E94CA6626EA3BE944EC5AE30E94C3
:10444000296702E917E0A70196010E9475164B0142
:104450005C01C0908706D0908806E0908906F090B5
:104460008A06F7FAF094F7F8F09480910E0690918E
:104470000F062091D4053091D505821B930BBC010A
:10448000990F880B990B0E94CA6626EA3BE944EC17
:104490005AE329C1811168C0209147033091480334
:1044A0004091490350914A0360915F067091600604
:1044B00080916106909162060E9429676B017C01E0
:1044C00080910C0690910D062091D2053091D30574
:1044D000821B930BBC01990F880B990B0E94CA6633
:1044E0002BE037ED43EA5BE30E9429670EE317E018
:1044F000A70196010E9475160E944B627093040DED
:104500006093030D8091630690916406A091650607
:10451000B0916606BC01CD019058209147033091BF
:1045200048034091490350914A030E9429676B0157
:104530007C0180910E0690910F062091D405309158
:10454000D505821B930BBC01990F880B990B0E9418
:10455000CA662BE037ED43EA5BE30E9429670AE570
:1045600017E0A7019601ECC0823009F0F1C08091FC
:104570004E02882391F080915B0690915C06A09199
:104580005D06B0915E068093ED0B9093EE0BA093C9
:10459000EF0BB093F00B10924E022091ED0B309187
:1045A000EE0B4091EF0B5091F00B60915B06709118
:1045B0005C0680915D0690915E060E9402612B016F
:1045C0003C0160910C0670910D068091D20590918E
:1045D000D305681B790B072E000C880B990B0E94E2
:1045E000CA664B015C01C301B2010E94E0616983AC
:1045F0007A838B839C8360910E0670910F06809165
:10460000D4059091D505681B790B072E000C880BFB
:10461000990B0E94CA666B017C01C301B2010E9422
:10462000B0636D837E838F8398879B01AC01C50146
:10463000B4010E9429672B013C0129813A814B81F9
:104640005C81C701B6010E9429679B01AC01C301CF
:10465000B2010E9403612B013C010091830610917D
:104660008406209185063091860609871A872B8754
:104670003C8729813A814B815C81C501B4010E944C
:1046800029674B015C012D813E814F815885C7010F
:10469000B6010E9429679B01AC01C501B4010E94CB
:1046A000026126EA3BE944EC5AE30E94296702E9E9
:1046B00017E029853A854B855C850E9475164B016C
:1046C0005C01C0908706D0908806E0908906F09043
:1046D0008A06F7FAF094F7F8F09426EA3BE944ECFE
:1046E0005AE3C301B2010E9429670EEA17E0A7014D
:1046F00096010E9475166B017C0120915F06309136
:104700006006409161065091620606EE17E0C50111
:10471000B4010E9475160E944B627093040D609361
:10472000030D8091630690916406A0916506B09197
:1047300066069C01AD01505802E018E0C701B601C1
:104740000E9475160E944B627093020D6093010DDA
:104750008091C608813009F03BC121EE3EE245E67A
:1047600052E460915B0670915C0680915D069091C9
:104770005E060E9429676B017C0160934A0C70936E
:104780004B0C80934C0C90934D0C8090FA0B9090B6
:10479000FB0BA090FC0BB090FD0BA50194010E94B7
:1047A00002612B013C0120E030E044E353E4C50109
:1047B000B4010E9402619B01AC01C701B6010E94D5
:1047C000C46618164CF44092F60B5092F70B6092A8
:1047D000F80B7092F90B10C020E030E044EB53E48A
:1047E000C301B2010E9403616093F60B7093F70B53
:1047F0008093F80B9093F90B20E030E044E353E40E
:10480000C501B4010E9403619B01AC01C701B6015F
:104810000E94596387FD16C020E030E044EB53E46A
:104820006091F60B7091F70B8091F80B9091F90B5A
:104830000E9402616093F60B7093F70B8093F80B64
:104840009093F90B80911206909113068D34944049
:104850000CF4A6C020911006309111068091040638
:1048600090910506820F931F835C9540C397D8F003
:10487000C092FA0BD092FB0BE092FC0BF092FD0B76
:104880001092F20B1092F30B1092F40B1092F50BA6
:104890001092DE071092DF071092E0071092E107F6
:1048A0001092F10B6CC08090F60B9090F70BA090DB
:1048B000F80BB090F90B20E030E040E85EE3C50172
:1048C000B4010E94C46687FF0BC020E030E040E8DE
:1048D0005EEBC501B4010E94596318160CF468C060
:1048E0008091F10B81113AC08091D2089091D30848
:1048F000A091D408B091D5084091790F50917A0FCA
:1049000060917B0F70917C0F8C019D01041B150B36
:10491000260B370BB901A8014132514A6740710596
:1049200008F456C021E02093F10B8093790F909307
:104930007A0FA0937B0FB0937C0FC092FA0BD092AA
:10494000FB0BE092FC0BF092FD0B1092F20B10921D
:10495000F30B1092F40B1092F50B3AC00AEC17E02F
:10496000A501940160E070E0CB010E947516609390
:10497000F20B7093F30B8093F40B9093F50B8091F3
:10498000D2089091D308A091D408B091D508809313
:10499000790F90937A0FA0937B0FB0937C0F18C080
:1049A000C092FA0BD092FB0BE092FC0BF092FD0B45
:1049B0001092F20B1092F30B1092F40B1092F50B75
:1049C0001092DE071092DF071092E0071092E107C5
:1049D00060911006709111068091D6059091D705CF
:1049E000681B790B8091040690910506680F791F6A
:1049F000072E000C880B990B0E94CA662BE037ED3E
:104A000043EA5BE30E9429676B017C0125E33AEFEF
:104A10004EE85CE36091F20B7091F30B8091F40B24
:104A20009091F50B0E9429679B01AC01C701B6016B
:104A30000E9403616B017C012BED3FE049E450ECE7
:104A40000E94C46687FD13C02BED3FE049E450E4AB
:104A5000C701B6010E94596318168CF49BEDC92E4C
:104A60009FE0D92E99E4E92E90E4F92E08C02BEDB1
:104A7000C22E2FE0D22E29E4E22E20ECF22E20913D
:104A80006706309168064091690650916A0606E70C
:104A900017E0C701B6010E9475160E944B62709321
:104AA000000D6093FF0C8091CE0880FDABC60E9484
:104AB0008A17882309F47AC280918F069091900614
:104AC000019709F073C280914E0681110AC08EEFE2
:104AD0009FEF9093400280933F0292DA81E08093AF
:104AE0004E06C0904F06D0905006E0905106F090D0
:104AF00052060091530610915406209155063091AC
:104B0000560640915706509158066091590670918B
:104B10005A0682E89CE00E94330C42E85CE061E7C0
:104B200073E086E79CE00E94251D86E79CE00E94DA
:104B3000981C46E75CE062E87CE08AE69CE00E9424
:104B4000251D8AE69CE00E94981C66E77CE08EE5C5
:104B50009CE00E94A61D9B01AC016AE67CE082E518
:104B60009CE02D873E874F87588B0E94A61D2D8580
:104B70003E854F8558890E948D6121EE3EE245E6D3
:104B800052E40E9429674B015C0160934E0C7093C4
:104B90004F0C8093500C9093510CC0904A0CD090C5
:104BA0004B0CE0904C0CF0904D0C20E030E044EBCE
:104BB00052EC0E94C46687FF10C020E030E044E35E
:104BC00053E4C501B4010E9403619B01AC01C7011C
:104BD000B6010E945963181684F120E030E044EBDE
:104BE00052E4C501B4010E945963181674F420E020
:104BF00030E044E353E4C501B4010E940261A7011F
:104C000096010E9459631816DCF120E030E044EB75
:104C100052ECC501B4010E9459631816BCF420E09F
:104C200030E044E353E4C501B4010E940361A701ED
:104C300096010E94C46687FF09C020E030E044EB83
:104C400053E4C701B6010E94026122C020E030E0B7
:104C500044EB52E4C501B4010E94C46687FF1AC048
:104C600020E030E044E353E4C501B4010E94026156
:104C70009B01AC01C701B6010E94C46687FF0AC050
:104C800020E030E044EB53E4C701B6010E94036129
:104C90006B017C01C092460CD092470CE092480C0C
:104CA000F092490CA7019601C501B4010E9402616E
:104CB0002B013C0120E030E040E752EC0E94C4664A
:104CC00087FD11C020E030E040E752E4C301B201AB
:104CD0000E94596318166CF4412C512C00E7602E89
:104CE00002E4702E06C0412C512C80E7682E82EC25
:104CF000782E4092420C5092430C6092440C709279
:104D0000450C42E55CE062E87CE086E39CE00E94C2
:104D1000251D86E39CE00E94981C46E35CE062E56A
:104D20007CE08AE29CE00E94251D8AE29CE00E94D1
:104D3000981C62E87CE08AE29CE00E94A61D9B0130
:104D4000AC0162E87CE08EE59CE02D873E874F87D2
:104D5000588B0E94A61D2D853E854F8558890E943F
:104D60008D6128EE34EA42EC5AE40E942967609390
:104D7000260C7093270C8093280C9093290C20E02C
:104D800030E040E850E40E9429672091AA08309161
:104D9000AB084091AC085091AD080E9429676B01A7
:104DA0007C0120E030E040E752EC0E94C46687FDC1
:104DB0000FC020E030E040E752E4C701B6010E9496
:104DC0005963181664F0F7FAF094F7F8F0940DC0F0
:104DD000C12CD12C10E7E12E12E4F12E06C0C12C1B
:104DE000D12CB0E7EB2EB2ECFB2EC092220CD0926D
:104DF000230CE092240CF092250C4AE05CE062E87F
:104E00007CE086E19CE00E94251D86E19CE00E94FA
:104E1000981C46E15CE06AE07CE08EEF9BE00E943B
:104E2000251D8EEF9BE00E94981C6AE07CE082E8E2
:104E30009CE00E94A61D9B01AC0162E87CE08EEF25
:104E40009BE02D873E874F87588B0E94A61D2D859E
:104E50003E854F8558890E948D6128EE34EA42ECE8
:104E60005AE40E9429674B015C0160936D037093C3
:104E70006E0380936F039093700320E030E040EF67
:104E800052E4609172087091730880917408909157
:104E900075080E9429670E944B6270930706609311
:104EA0000606A7019601C301B2010E9403616B01CE
:104EB0007C0120E030E040EF51EC0E94C46687FDA9
:104EC00013C020E030E040EF51E4C701B6010E947A
:104ED0005963181674F020E030E040E051E4C70157
:104EE000B6010E94296709C060E070E080E793EC9A
:104EF00004C060E070E080E793E440908E0850903A
:104F00008F086090900870909108A30192010E9410
:104F100029670E944B62709309066093080620E09F
:104F200030E040EF51ECC701B6010E94C46687FD36
:104F300013C020E030E040EF51E4C701B6010E9409
:104F40005963181674F020E030E040E051E4C701E6
:104F5000B6010E94296709C060E070E080E793EC29
:104F600004C060E070E080E793E4A30192010E9436
:104F700029670E944B62709305066093040620E047
:104F800030E040E050E4C501B4010E94C46687FFF0
:104F90000DC036D880930306882341F01092900606
:104FA00010928F0610920706109206068091FA055D
:104FB000813009F070C1C0904F02D0905002E09053
:104FC0005102F0905202C701B6010E94A10D811159
:104FD0002BC02091FB053091FC054091FD055091BF
:104FE000FE056091FF057091000680910106909189
:104FF00002060E9402619B01AC016091F305709171
:10500000F4058091F5059091F6050EE118E00E94F7
:1050100075160E944B622090410330904203621546
:1050200073050CF448C03EC020E030E040E85FEB80
:105030006091EF057091F0058091F1059091F20576
:105040000E94C466811108C0C092EF05D092F0059D
:10505000E092F105F092F2056091EF057091F00594
:105060008091F1059091F20506E518E0A7019601FF
:105070000E9475160E944B622090410330904203BB
:10508000621573054CF020913F03309140031B01E2
:10509000261737070CF4190128E122162CEF3206E7
:1050A000C1F497CF20913F03309140031B01261795
:1050B00037070CF4190138E123163CEF330649F4A5
:1050C000809112069091130690937E0380937D0346
:1050D00082C12091B2053091B3054091B405509141
:1050E000B5050AE318E060E070E0CB010E94751698
:1050F0004B015C01B7FAB094B7F8B09460914103EA
:1051000070914203072E000C880B990B0E94CA660F
:105110007B018C019B01AC01C501B4010E94C466F6
:1051200087FD16C060913F0370914003072E000C6D
:10513000880B990B0E94CA667B018C019B01AC0114
:10514000C501B4010E945963181614F07401850159
:10515000C0903D02D0903E02A0901206B09013067F
:10516000C6018A199B0997FF03C091958195910902
:1051700020914303309144032817390724F482E037
:105180008093FA0574C08090450390904603C60151
:10519000880D991D8A159B0594F52AE037ED43E2A9
:1051A0005CE36091F3057091F4058091F5059091B1
:1051B000F6050E9403616093F3057093F4058093F4
:1051C000F5059093F6052AE037ED43E25CE3609144
:1051D000EF057091F0058091F1059091F2050E9424
:1051E00003612B013C010E94A10D882341F04092F4
:1051F000EF055092F0056092F1057092F205C6013C
:1052000088199909A816B90694F52AE037ED43E202
:105210005CE36091F3057091F4058091F505909140
:10522000F6050E9402616093F3057093F405809384
:10523000F5059093F6052AE037ED43E25CE36091D3
:10524000EF057091F0058091F1059091F2050E94B3
:1052500002614B015C010E94A10D882341F0809204
:10526000EF059092F005A092F105B092F205B6011B
:10527000620D731D072E000C880B990B0E94CA66E5
:105280009701A8010E9403610E944B6270937E0304
:1052900060937D0308C0809112069091130690934D
:1052A0007E0380937D03C090FF05D0900006E090C0
:1052B0000106F09002062091F70C3091F80C409115
:1052C000F90C5091FA0CC701B6010E94026120E06E
:1052D00030E048E452E40E9429674B015C01809170
:1052E000960C81112DC06091900C7091910C809161
:1052F000920C9091930C00E010E0612C712CF8015D
:10530000E956F34F20813181428153810E9403612C
:105310004FEF641A740A0C5F1F4FA7E16A167104FD
:1053200071F76093900C7093910C8093920C909312
:10533000930C7092950C6092940C81E08093960C83
:1053400080918E0C90918F0C019667E170E00E9425
:10535000C76090938F0C80938E0C880F991F880FD5
:10536000991F8C010956134FF80120813181428128
:1053700053816091900C7091910C8091920C90915E
:10538000930C0E940261D8018D929D92AD92BC92C5
:105390001397A50194010E9403616093900C709390
:1053A000910C8093920C9093930C20E030E048EBAA
:1053B00051E40E94E3616093F30C7093F40C8093CA
:1053C000F50C9093F60CC092F70CD092F80CE0928A
:1053D000F90CF092FA0C8091DC059091DD05823396
:1053E00091055CF42091CD08222309F4CCC00196EC
:1053F0009093DD058093DC05C6C08091FA0581306D
:10540000D1F52AE037ED43E25CE36091F30570915A
:10541000F4058091F5059091F6050E940261609374
:10542000F3057093F4058093F5059093F605C0900D
:10543000EF05D090F005E090F105F090F20520E046
:1054400030E040E85FEBC701B6010E94C4668823E4
:1054500009F499C02AE037ED43E25CE3C701B601E5
:105460000E9402616093EF057093F0058093F1054F
:105470009093F20588C08091DA059091DB05892B25
:1054800039F52FB7F89480916D0B90916E0BA09128
:105490006F0BB091700B2FBF8093FB0C9093FC0CA3
:1054A000A093FD0CB093FE0C80917D0390917E0340
:1054B0002091350330913603821793072CF43093F3
:1054C000DB052093DA0504C09093DB058093DA05B1
:1054D0006091350370913603CB01770FAA0BBB0B9C
:1054E000C090DA05D090DB050D2C000CEE08FF080B
:1054F0008090310390903203A0903303B090340336
:105500004FB7F89400916D0B10916E0B20916F0BBB
:105510003091700B4FBF4090FB0C5090FC0C609092
:10552000FD0C7090FE0CA90198012419350946095B
:105530005709BC01CD016C197D098E099F090E9494
:10554000B860A50194010E94F667C20ED31EE41E46
:10555000F51E8091350390913603C816D9060CF4D8
:105560006C0180917D0390917E038C159D052CF438
:105570001092D9051092D80506C0C81AD90AD0923F
:10558000D905C092D8058091F905882309F4C1C0D6
:10559000823029F52FE632E143E05CE36091F305C8
:1055A0007091F4058091F5059091F6050E940261D5
:1055B0006093F3057093F4058093F5059093F605D9
:1055C00060914F027091500280915102909152026D
:1055D0000E94A10D882309F49CC083E040C0833061
:1055E00009F040C02FE632E143E05CE36091F3054F
:1055F0007091F4058091F5059091F6050E94026185
:105600006093F3057093F4058093F5059093F60588
:105610002AE037ED43EA5BE36091EF057091F00516
:105620008091F1059091F2050E9402616093EF056F
:105630007093F0058093F1059093F20520E030E03F
:1056400040E05FE360914F027091500280915102FF
:10565000909152020E94C46687FF5BC084E08093F1
:10566000F90557C08091F7059091F8058C0101501C
:1056700011091093F8050093F7052FE632E143E096
:105680005CE36091F3057091F4058091F5059091CC
:10569000F6050E9402616093F3057093F405809310
:1056A000F5059093F6052AE037ED43EA5BE3609158
:1056B000EF057091F0058091F1059091F2050E943F
:1056C00002616093EF057093F0058093F10590936C
:1056D000F20520917D0330917E03C801820F931F54
:1056E000883E934084F02DEC3CEC4CE45EE360910A
:1056F0004F027091500280915102909152020E948B
:10570000C46687FF06C088EE93E00E945F14109283
:105710000A0680918F06909190060197E0907D0394
:10572000F0907E03029708F04AC02DEC3CEC4CE070
:105730005FE3609183067091840680918506909165
:1057400086060E9429670E94E0612B013C012DEC36
:105750003CEC4CE05FE36091870670918806809195
:10576000890690918A060E9429670E94E0619B0148
:10577000AC01B7010F2C000C880B990B2D873E87CD
:105780004F87588B0E94CA664B015C012D853E8570
:105790004F855889C301B2010E9429679B01AC0162
:1057A000C501B4010E94E3610E944B626E197F093A
:1057B0006333710514F062E370E077FF02C060E0CC
:1057C00070E08091D8059091D905680F791F892BD9
:1057D00031F08091F7059091F805680F791F6E0DF3
:1057E0007F1D683EE3E07E073CF06B33F7E07F0708
:1057F0002CF06AE377E002C068EE73E070937E03FA
:1058000060937D03D0900A06DD2009F46DC080917D
:10581000EE05882309F468C080917D0390917E0392
:105820006091030D7091040D9B0177FF02C02F5F03
:105830003F4F35952795DC01A20FB31F2091010D35
:105840003091020DA90137FF02C04F5F5F4F5595A0
:105850004795519541955109E091FF0CF091000D4C
:105860008D01040F151F0E1B1F0B1093DF050093F6
:10587000DE058B0177FF02C00F5F1F4F159507955F
:105880007C01E01AF10A870137FF02C02F5F3F4F0A
:10589000359527957801E20EF31EEE0EFF1EF0926D
:1058A000E505E092E405400F511F4E0F5F1F509336
:1058B000E1054093E0052A0F3B1F2E1B3F0B309361
:1058C000E7052093E6059C01261B370B2E1B3F0B9B
:1058D0003093E3052093E205860F971F8E0F9F1FDD
:1058E0009093E9058093E805609138077091390736
:1058F000B1E1AB2EBDE0BB2E45E05DE0CA01D501B4
:1059000020ED37E06D937D93FC0121933193CF011E
:10591000FDE0AD31BF07B1F78091DE059091DF0565
:10592000E0EEF5E021913191821793070CF4C90163
:1059300005E0EA3EF007B1F72EED35E0F901A6E00B
:1059400000ED17E04801881A990A813D17E0910798
:1059500034F0E080F180E80CF91CF182E082A15083
:105960003296A111F2CF80911206909113068C34D9
:1059700094401CF0EEEDF5E02FC000910B06109165
:10598000CB08E5E0FDE081E19DE0A0EDEA2EA7E097
:10599000FA2EDC016D937D93CD01002329F01111C6
:1059A00003C0F182E08202C0718360833296BDE061
:1059B000E131FB0771F7DECFDA018D919C91681719
:1059C00079070CF4CB01819391934E5F5F4FBDE15A
:1059D000AB16BDE0BB0651F060817181D5018D91A0
:1059E0009D915D016817790774F3E6CFD11053C01C
:1059F00080919D06833039F08530A1F0813079F5B2
:105A000080ED97E02EC080916B0290916C02883EF1
:105A1000E3E09E0724F1813BF4E09F0714F180EB63
:105A200094E01FC0E1E9F6E081919191883E03E0A6
:105A300090073CF0813B14E091072CF080EB94E060
:105A400002C088EE93E0D9018D939D939D01B6E04D
:105A5000ED39FB0749F781E08093EE051AC088EE27
:105A600093E09093DF058093DE059093E1058093AA
:105A7000E0059093E3058093E2059093E50580931C
:105A8000E4059093E7058093E6059093E9058093FC
:105A9000E8050E948F1480910A068130F1F480910C
:105AA000EE058130D1F460960FB6F894DEBF0FBEDC
:105AB000CDBFDF91CF911F910F91FF90EF90DF90BD
:105AC000CF90BF90AF909F908F907F906F905F909E
:105AD0004F903F902F900C948F1460960FB6F894CF
